{
  "_format": "hh-sol-artifact-1",
  "contractName": "SecureContract",
  "sourceName": "contracts/SecureContract.sol",
  "abi": [
    {
      "anonymous": false,
      "inputs": [
        {
          "indexed": true,
          "internalType": "address",
          "name": "user",
          "type": "address"
        },
        {
          "indexed": false,
          "internalType": "uint256",
          "name": "amount",
          "type": "uint256"
        }
      ],
      "name": "Deposited",
      "type": "event"
    },
    {
      "anonymous": false,
      "inputs": [
        {
          "indexed": true,
          "internalType": "address",
          "name": "user",
          "type": "address"
        },
        {
          "indexed": false,
          "internalType": "uint256",
          "name": "balanceAfterTransaction",
          "type": "uint256"
        },
        {
          "indexed": false,
          "internalType": "uint256",
          "name": "nextTransactionTime",
          "type": "uint256"
        }
      ],
      "name": "TransactionInfo",
      "type": "event"
    },
    {
      "anonymous": false,
      "inputs": [
        {
          "indexed": true,
          "internalType": "address",
          "name": "user",
          "type": "address"
        },
        {
          "indexed": false,
          "internalType": "uint256",
          "name": "amount",
          "type": "uint256"
        }
      ],
      "name": "Withdrawn",
      "type": "event"
    },
    {
      "inputs": [],
      "name": "COOLDOWN_TIME",
      "outputs": [
        {
          "internalType": "uint256",
          "name": "",
          "type": "uint256"
        }
      ],
      "stateMutability": "view",
      "type": "function"
    },
    {
      "inputs": [],
      "name": "deposit",
      "outputs": [],
      "stateMutability": "payable",
      "type": "function"
    },
    {
      "inputs": [
        {
          "internalType": "address",
          "name": "user",
          "type": "address"
        }
      ],
      "name": "getBalance",
      "outputs": [
        {
          "internalType": "uint256",
          "name": "",
          "type": "uint256"
        }
      ],
      "stateMutability": "view",
      "type": "function"
    },
    {
      "inputs": [
        {
          "internalType": "address",
          "name": "user",
          "type": "address"
        }
      ],
      "name": "nextTransactionTime",
      "outputs": [
        {
          "internalType": "uint256",
          "name": "",
          "type": "uint256"
        }
      ],
      "stateMutability": "view",
      "type": "function"
    },
    {
      "inputs": [],
      "name": "withdraw",
      "outputs": [],
      "stateMutability": "nonpayable",
      "type": "function"
    }
  ],
  "bytecode": "0x6080604052348015600f57600080fd5b50610ac18061001f6000396000f3fe60806040526004361061004a5760003560e01c80633ccfd60b1461004f5780637d26324514610066578063c9df7a2014610091578063d0e30db0146100ce578063f8b2cb4f146100d8575b600080fd5b34801561005b57600080fd5b50610064610115565b005b34801561007257600080fd5b5061007b61048a565b604051610088919061074d565b60405180910390f35b34801561009d57600080fd5b506100b860048036038101906100b391906107cb565b610490565b6040516100c5919061074d565b60405180910390f35b6100d66104e6565b005b3480156100e457600080fd5b506100ff60048036038101906100fa91906107cb565b6106ec565b60405161010c919061074d565b60405180910390f35b611c20600160003373ffffffffffffffffffffffffffffffffffffffff1673ffffffffffffffffffffffffffffffffffffffff168152602001908152602001600020546101629190610827565b4210156101a4576040517f08c379a000000000000000000000000000000000000000000000000000000000815260040161019b906108b8565b60405180910390fd5b60008060003373ffffffffffffffffffffffffffffffffffffffff1673ffffffffffffffffffffffffffffffffffffffff1681526020019081526020016000205490506000811161022a576040517f08c379a000000000000000000000000000000000000000000000000000000000815260040161022190610924565b60405180910390fd5b60008060003373ffffffffffffffffffffffffffffffffffffffff1673ffffffffffffffffffffffffffffffffffffffff1681526020019081526020016000208190555042600160003373ffffffffffffffffffffffffffffffffffffffff1673ffffffffffffffffffffffffffffffffffffffff1681526020019081526020016000208190555060003373ffffffffffffffffffffffffffffffffffffffff16826040516102d890610975565b60006040518083038185875af1925050503d8060008114610315576040519150601f19603f3d011682016040523d82523d6000602084013e61031a565b606091505b505090508061035e576040517f08c379a0000000000000000000000000000000000000000000000000000000008152600401610355906109d6565b60405180910390fd5b3373ffffffffffffffffffffffffffffffffffffffff167f7084f5476618d8e60b11ef0d7d3f06914655adb8793e28ff7f018d4c76d505d5836040516103a4919061074d565b60405180910390a23373ffffffffffffffffffffffffffffffffffffffff167f0bd8ab3a75b603beb8c382868ae3ec451c35bb41444f6b0c2175e0505424e95c6000803373ffffffffffffffffffffffffffffffffffffffff1673ffffffffffffffffffffffffffffffffffffffff16815260200190815260200160002054611c20600160003373ffffffffffffffffffffffffffffffffffffffff1673ffffffffffffffffffffffffffffffffffffffff168152602001908152602001600020546104709190610827565b60405161047e9291906109f6565b60405180910390a25050565b611c2081565b6000611c20600160008473ffffffffffffffffffffffffffffffffffffffff1673ffffffffffffffffffffffffffffffffffffffff168152602001908152602001600020546104df9190610827565b9050919050565b60003411610529576040517f08c379a000000000000000000000000000000000000000000000000000000000815260040161052090610a6b565b60405180910390fd5b346000803373ffffffffffffffffffffffffffffffffffffffff1673ffffffffffffffffffffffffffffffffffffffff16815260200190815260200160002060008282546105779190610827565b9250508190555042600160003373ffffffffffffffffffffffffffffffffffffffff1673ffffffffffffffffffffffffffffffffffffffff168152602001908152602001600020819055503373ffffffffffffffffffffffffffffffffffffffff167f2da466a7b24304f47e87fa2e1e5a81b9831ce54fec19055ce277ca2f39ba42c434604051610608919061074d565b60405180910390a23373ffffffffffffffffffffffffffffffffffffffff167f0bd8ab3a75b603beb8c382868ae3ec451c35bb41444f6b0c2175e0505424e95c6000803373ffffffffffffffffffffffffffffffffffffffff1673ffffffffffffffffffffffffffffffffffffffff16815260200190815260200160002054611c20600160003373ffffffffffffffffffffffffffffffffffffffff1673ffffffffffffffffffffffffffffffffffffffff168152602001908152602001600020546106d49190610827565b6040516106e29291906109f6565b60405180910390a2565b60008060008373ffffffffffffffffffffffffffffffffffffffff1673ffffffffffffffffffffffffffffffffffffffff168152602001908152602001600020549050919050565b6000819050919050565b61074781610734565b82525050565b6000602082019050610762600083018461073e565b92915050565b600080fd5b600073ffffffffffffffffffffffffffffffffffffffff82169050919050565b60006107988261076d565b9050919050565b6107a88161078d565b81146107b357600080fd5b50565b6000813590506107c58161079f565b92915050565b6000602082840312156107e1576107e0610768565b5b60006107ef848285016107b6565b91505092915050565b7f4e487b7100000000000000000000000000000000000000000000000000000000600052601160045260246000fd5b600061083282610734565b915061083d83610734565b9250828201905080821115610855576108546107f8565b5b92915050565b600082825260208201905092915050565b7f5761697420666f7220636f6f6c646f776e20706572696f640000000000000000600082015250565b60006108a260188361085b565b91506108ad8261086c565b602082019050919050565b600060208201905081810360008301526108d181610895565b9050919050565b7f496e73756666696369656e742062616c616e6365000000000000000000000000600082015250565b600061090e60148361085b565b9150610919826108d8565b602082019050919050565b6000602082019050818103600083015261093d81610901565b9050919050565b600081905092915050565b50565b600061095f600083610944565b915061096a8261094f565b600082019050919050565b600061098082610952565b9150819050919050565b7f5472616e73666572206661696c65640000000000000000000000000000000000600082015250565b60006109c0600f8361085b565b91506109cb8261098a565b602082019050919050565b600060208201905081810360008301526109ef816109b3565b9050919050565b6000604082019050610a0b600083018561073e565b610a18602083018461073e565b9392505050565b7f4d757374206465706f736974206d6f7265207468616e20300000000000000000600082015250565b6000610a5560188361085b565b9150610a6082610a1f565b602082019050919050565b60006020820190508181036000830152610a8481610a48565b905091905056fea2646970667358221220fbe4d742f9c3771729192d0793f20b884206e92b4edc7c4ae705b2b528e80d9864736f6c634300081c0033",
  "linkReferences": {},
  "deployedLinkReferences": {}
}