{
  "_format": "hh-sol-artifact-1",
  "contractName": "Attacker",
  "sourceName": "contracts/Attacker.sol",
  "abi": [
    {
      "inputs": [
        {
          "internalType": "address",
          "name": "_target",
          "type": "address"
        }
      ],
      "stateMutability": "nonpayable",
      "type": "constructor"
    },
    {
      "inputs": [],
      "name": "attack",
      "outputs": [],
      "stateMutability": "payable",
      "type": "function"
    },
    {
      "inputs": [],
      "name": "owner",
      "outputs": [
        {
          "internalType": "address",
          "name": "",
          "type": "address"
        }
      ],
      "stateMutability": "view",
      "type": "function"
    },
    {
      "inputs": [],
      "name": "targetContract",
      "outputs": [
        {
          "internalType": "contract SecureContract",
          "name": "",
          "type": "address"
        }
      ],
      "stateMutability": "view",
      "type": "function"
    },
    {
      "inputs": [],
      "name": "withdrawStolenFunds",
      "outputs": [],
      "stateMutability": "nonpayable",
      "type": "function"
    },
    {
      "stateMutability": "payable",
      "type": "receive"
    }
  ],
  "bytecode": "0x608060405234801561001057600080fd5b506040516107603803806107608339818101604052810190610032919061011c565b806000806101000a81548173ffffffffffffffffffffffffffffffffffffffff021916908373ffffffffffffffffffffffffffffffffffffffff16021790555033600160006101000a81548173ffffffffffffffffffffffffffffffffffffffff021916908373ffffffffffffffffffffffffffffffffffffffff16021790555050610149565b600080fd5b600073ffffffffffffffffffffffffffffffffffffffff82169050919050565b60006100e9826100be565b9050919050565b6100f9816100de565b811461010457600080fd5b50565b600081519050610116816100f0565b92915050565b600060208284031215610132576101316100b9565b5b600061014084828501610107565b91505092915050565b610608806101586000396000f3fe6080604052600436106100435760003560e01c80638da5cb5b146101115780639e5faafc1461013c578063bd90df7014610146578063fd276754146101715761010c565b3661010c5760008060009054906101000a900473ffffffffffffffffffffffffffffffffffffffff1673ffffffffffffffffffffffffffffffffffffffff1631111561010a5760008054906101000a900473ffffffffffffffffffffffffffffffffffffffff1673ffffffffffffffffffffffffffffffffffffffff16633ccfd60b6040518163ffffffff1660e01b8152600401600060405180830381600087803b1580156100f157600080fd5b505af1158015610105573d6000803e3d6000fd5b505050505b005b600080fd5b34801561011d57600080fd5b50610126610188565b6040516101339190610454565b60405180910390f35b6101446101ae565b005b34801561015257600080fd5b5061015b6102f4565b60405161016891906104ce565b60405180910390f35b34801561017d57600080fd5b50610186610318565b005b600160009054906101000a900473ffffffffffffffffffffffffffffffffffffffff1681565b600034116101f1576040517f08c379a00000000000000000000000000000000000000000000000000000000081526004016101e890610546565b60405180910390fd5b60008054906101000a900473ffffffffffffffffffffffffffffffffffffffff1673ffffffffffffffffffffffffffffffffffffffff1663d0e30db0346040518263ffffffff1660e01b81526004016000604051808303818588803b15801561025957600080fd5b505af115801561026d573d6000803e3d6000fd5b505050505060008054906101000a900473ffffffffffffffffffffffffffffffffffffffff1673ffffffffffffffffffffffffffffffffffffffff16633ccfd60b6040518163ffffffff1660e01b8152600401600060405180830381600087803b1580156102da57600080fd5b505af11580156102ee573d6000803e3d6000fd5b50505050565b60008054906101000a900473ffffffffffffffffffffffffffffffffffffffff1681565b600160009054906101000a900473ffffffffffffffffffffffffffffffffffffffff1673ffffffffffffffffffffffffffffffffffffffff163373ffffffffffffffffffffffffffffffffffffffff16146103a8576040517f08c379a000000000000000000000000000000000000000000000000000000000815260040161039f906105b2565b60405180910390fd5b600160009054906101000a900473ffffffffffffffffffffffffffffffffffffffff1673ffffffffffffffffffffffffffffffffffffffff166108fc479081150290604051600060405180830381858888f19350505050158015610410573d6000803e3d6000fd5b50565b600073ffffffffffffffffffffffffffffffffffffffff82169050919050565b600061043e82610413565b9050919050565b61044e81610433565b82525050565b60006020820190506104696000830184610445565b92915050565b6000819050919050565b600061049461048f61048a84610413565b61046f565b610413565b9050919050565b60006104a682610479565b9050919050565b60006104b88261049b565b9050919050565b6104c8816104ad565b82525050565b60006020820190506104e360008301846104bf565b92915050565b600082825260208201905092915050565b7f4d7573742073656e6420736f6d65206574686572000000000000000000000000600082015250565b60006105306014836104e9565b915061053b826104fa565b602082019050919050565b6000602082019050818103600083015261055f81610523565b9050919050565b7f4e6f74206f776e65720000000000000000000000000000000000000000000000600082015250565b600061059c6009836104e9565b91506105a782610566565b602082019050919050565b600060208201905081810360008301526105cb8161058f565b905091905056fea26469706673582212207ebca8f6fcc318115d1030ca67666a665ded639f3de05ad4a97560b9a4f93b6164736f6c634300081c0033",
  "linkReferences": {},
  "deployedLinkReferences": {}
}