{
  "_format": "hh-sol-artifact-1",
  "contractName": "GasComparison",
  "sourceName": "contracts/Lock.sol",
  "abi": [
    {
      "anonymous": false,
      "inputs": [
        {
          "indexed": false,
          "internalType": "string",
          "name": "txType",
          "type": "string"
        },
        {
          "indexed": false,
          "internalType": "uint256",
          "name": "gasUsed",
          "type": "uint256"
        },
        {
          "indexed": false,
          "internalType": "uint256",
          "name": "gasPrice",
          "type": "uint256"
        },
        {
          "indexed": false,
          "internalType": "uint256",
          "name": "totalCost",
          "type": "uint256"
        }
      ],
      "name": "TransactionExecuted",
      "type": "event"
    },
    {
      "inputs": [
        {
          "internalType": "string",
          "name": "_txType1",
          "type": "string"
        },
        {
          "internalType": "string",
          "name": "_txType2",
          "type": "string"
        }
      ],
      "name": "compareTransactions",
      "outputs": [
        {
          "internalType": "string",
          "name": "",
          "type": "string"
        }
      ],
      "stateMutability": "pure",
      "type": "function"
    },
    {
      "inputs": [
        {
          "internalType": "uint256",
          "name": "",
          "type": "uint256"
        }
      ],
      "name": "complexMap",
      "outputs": [
        {
          "internalType": "string",
          "name": "",
          "type": "string"
        }
      ],
      "stateMutability": "view",
      "type": "function"
    },
    {
      "inputs": [
        {
          "internalType": "uint256",
          "name": "_key",
          "type": "uint256"
        },
        {
          "internalType": "string",
          "name": "_value",
          "type": "string"
        }
      ],
      "name": "complexTransaction",
      "outputs": [],
      "stateMutability": "nonpayable",
      "type": "function"
    },
    {
      "inputs": [
        {
          "internalType": "uint256",
          "name": "_value",
          "type": "uint256"
        }
      ],
      "name": "simpleTransaction",
      "outputs": [],
      "stateMutability": "nonpayable",
      "type": "function"
    },
    {
      "inputs": [],
      "name": "simpleValue",
      "outputs": [
        {
          "internalType": "uint256",
          "name": "",
          "type": "uint256"
        }
      ],
      "stateMutability": "view",
      "type": "function"
    },
    {
      "inputs": [
        {
          "internalType": "uint256",
          "name": "",
          "type": "uint256"
        }
      ],
      "name": "storageArray",
      "outputs": [
        {
          "internalType": "uint256",
          "name": "",
          "type": "uint256"
        }
      ],
      "stateMutability": "view",
      "type": "function"
    },
    {
      "inputs": [
        {
          "internalType": "uint256",
          "name": "_value",
          "type": "uint256"
        }
      ],
      "name": "storageTransaction",
      "outputs": [],
      "stateMutability": "nonpayable",
      "type": "function"
    }
  ],
  "bytecode": "0x6080604052348015600f57600080fd5b50610fbe8061001f6000396000f3fe608060405234801561001057600080fd5b506004361061007d5760003560e01c8063b6dceac81161005b578063b6dceac8146100fe578063d744ee031461011a578063eecb57d214610136578063f5b10459146101545761007d565b80630e031ab11461008257806339cf7f60146100b25780633e49c8f4146100ce575b600080fd5b61009c60048036038101906100979190610647565b610184565b6040516100a99190610683565b60405180910390f35b6100cc60048036038101906100c791906107e4565b6101a8565b005b6100e860048036038101906100e39190610647565b61023b565b6040516100f591906108bf565b60405180910390f35b61011860048036038101906101139190610647565b6102db565b005b610134600480360381019061012f9190610647565b61032a565b005b61013e61039b565b60405161014b9190610683565b60405180910390f35b61016e600480360381019061016991906108e1565b6103a1565b60405161017b91906108bf565b60405180910390f35b6001818154811061019457600080fd5b906000526020600020016000915090505481565b60005a9050816002600085815260200190815260200160002090816101cd9190610b65565b5060018390806001815401808255809150506001900390600052602060002001600090919091909150556102366040518060400160405280600781526020017f436f6d706c65780000000000000000000000000000000000000000000000000081525082610594565b505050565b6002602052806000526040600020600091509050805461025a90610988565b80601f016020809104026020016040519081016040528092919081815260200182805461028690610988565b80156102d35780601f106102a8576101008083540402835291602001916102d3565b820191906000526020600020905b8154815290600101906020018083116102b657829003601f168201915b505050505081565b60005a9050816000819055506103266040518060400160405280600681526020017f53696d706c65000000000000000000000000000000000000000000000000000081525082610594565b5050565b60005a905060018290806001815401808255809150506001900390600052602060002001600090919091909150556103976040518060400160405280600781526020017f53746f726167650000000000000000000000000000000000000000000000000081525082610594565b5050565b60005481565b60606000836040516020016103b69190610c73565b6040516020818303038152906040528051906020012090506000836040516020016103e19190610c73565b60405160208183030381529060405280519060200120905060405160200161040890610cd6565b604051602081830303815290604052805190602001208214801561044f575060405160200161043690610d37565b6040516020818303038152906040528051906020012081145b1561047657604051806080016040528060418152602001610f48604191399250505061058e565b60405160200161048590610cd6565b60405160208183030381529060405280519060200120821480156104cc57506040516020016104b390610d98565b6040516020818303038152906040528051906020012081145b156104f357604051806080016040528060418152602001610e9f604191399250505061058e565b60405160200161050290610d37565b6040516020818303038152906040528051906020012082148015610549575060405160200161053090610d98565b6040516020818303038152906040528051906020012081145b1561057057604051806080016040528060428152602001610f06604291399250505061058e565b604051806060016040528060268152602001610ee060269139925050505b92915050565b60005a826105a29190610ddc565b905060003a9050600081836105b79190610e10565b90507fee8d1e9aa16ebce7050ef672c5daacac8d0ddfd8edb7bfbd2395e762e855a31d858484846040516105ee9493929190610e52565b60405180910390a15050505050565b6000604051905090565b600080fd5b600080fd5b6000819050919050565b61062481610611565b811461062f57600080fd5b50565b6000813590506106418161061b565b92915050565b60006020828403121561065d5761065c610607565b5b600061066b84828501610632565b91505092915050565b61067d81610611565b82525050565b60006020820190506106986000830184610674565b92915050565b600080fd5b600080fd5b6000601f19601f8301169050919050565b7f4e487b7100000000000000000000000000000000000000000000000000000000600052604160045260246000fd5b6106f1826106a8565b810181811067ffffffffffffffff821117156107105761070f6106b9565b5b80604052505050565b60006107236105fd565b905061072f82826106e8565b919050565b600067ffffffffffffffff82111561074f5761074e6106b9565b5b610758826106a8565b9050602081019050919050565b82818337600083830152505050565b600061078761078284610734565b610719565b9050828152602081018484840111156107a3576107a26106a3565b5b6107ae848285610765565b509392505050565b600082601f8301126107cb576107ca61069e565b5b81356107db848260208601610774565b91505092915050565b600080604083850312156107fb576107fa610607565b5b600061080985828601610632565b925050602083013567ffffffffffffffff81111561082a5761082961060c565b5b610836858286016107b6565b9150509250929050565b600081519050919050565b600082825260208201905092915050565b60005b8381101561087a57808201518184015260208101905061085f565b60008484015250505050565b600061089182610840565b61089b818561084b565b93506108ab81856020860161085c565b6108b4816106a8565b840191505092915050565b600060208201905081810360008301526108d98184610886565b905092915050565b600080604083850312156108f8576108f7610607565b5b600083013567ffffffffffffffff8111156109165761091561060c565b5b610922858286016107b6565b925050602083013567ffffffffffffffff8111156109435761094261060c565b5b61094f858286016107b6565b9150509250929050565b7f4e487b7100000000000000000000000000000000000000000000000000000000600052602260045260246000fd5b600060028204905060018216806109a057607f821691505b6020821081036109b3576109b2610959565b5b50919050565b60008190508160005260206000209050919050565b60006020601f8301049050919050565b600082821b905092915050565b600060088302610a1b7fffffffffffffffffffffffffffffffffffffffffffffffffffffffffffffffff826109de565b610a2586836109de565b95508019841693508086168417925050509392505050565b6000819050919050565b6000610a62610a5d610a5884610611565b610a3d565b610611565b9050919050565b6000819050919050565b610a7c83610a47565b610a90610a8882610a69565b8484546109eb565b825550505050565b600090565b610aa5610a98565b610ab0818484610a73565b505050565b5b81811015610ad457610ac9600082610a9d565b600181019050610ab6565b5050565b601f821115610b1957610aea816109b9565b610af3846109ce565b81016020851015610b02578190505b610b16610b0e856109ce565b830182610ab5565b50505b505050565b600082821c905092915050565b6000610b3c60001984600802610b1e565b1980831691505092915050565b6000610b558383610b2b565b9150826002028217905092915050565b610b6e82610840565b67ffffffffffffffff811115610b8757610b866106b9565b5b610b918254610988565b610b9c828285610ad8565b600060209050601f831160018114610bcf5760008415610bbd578287015190505b610bc78582610b49565b865550610c2f565b601f198416610bdd866109b9565b60005b82811015610c0557848901518255600182019150602085019450602081019050610be0565b86831015610c225784890151610c1e601f891682610b2b565b8355505b6001600288020188555050505b505050505050565b600081905092915050565b6000610c4d82610840565b610c578185610c37565b9350610c6781856020860161085c565b80840191505092915050565b6000610c7f8284610c42565b915081905092915050565b7f53696d706c650000000000000000000000000000000000000000000000000000600082015250565b6000610cc0600683610c37565b9150610ccb82610c8a565b600682019050919050565b6000610ce182610cb3565b9150819050919050565b7f53746f7261676500000000000000000000000000000000000000000000000000600082015250565b6000610d21600783610c37565b9150610d2c82610ceb565b600782019050919050565b6000610d4282610d14565b9150819050919050565b7f436f6d706c657800000000000000000000000000000000000000000000000000600082015250565b6000610d82600783610c37565b9150610d8d82610d4c565b600782019050919050565b6000610da382610d75565b9150819050919050565b7f4e487b7100000000000000000000000000000000000000000000000000000000600052601160045260246000fd5b6000610de782610611565b9150610df283610611565b9250828203905081811115610e0a57610e09610dad565b5b92915050565b6000610e1b82610611565b9150610e2683610611565b9250828202610e3481610611565b91508282048414831517610e4b57610e4a610dad565b5b5092915050565b60006080820190508181036000830152610e6c8187610886565b9050610e7b6020830186610674565b610e886040830185610674565b610e956060830184610674565b9594505050505056fe436f6d706c6578207472616e73616374696f6e73207479706963616c6c7920636f7374206d6f7265207468616e2053696d706c65207472616e73616374696f6e7343616e6e6f7420636f6d70617265207468657365207472616e73616374696f6e207479706573436f6d706c6578207472616e73616374696f6e73207479706963616c6c7920636f7374206d6f7265207468616e2053746f72616765207472616e73616374696f6e7353746f72616765207472616e73616374696f6e73207479706963616c6c7920636f7374206d6f7265207468616e2053696d706c65207472616e73616374696f6e73a264697066735822122099415f7a05b8d6c191094fd4b49d53ebe1cf0727d2d852e3862f6e4c4b164dc164736f6c634300081c0033",
  "linkReferences": {},
  "deployedLinkReferences": {}
}