{"contracts/Lock.sol":{"GasComparison":{"abi":[{"anonymous":false,"inputs":[{"indexed":false,"internalType":"string","name":"txType","type":"string"},{"indexed":false,"internalType":"uint256","name":"gasUsed","type":"uint256"},{"indexed":false,"internalType":"uint256","name":"gasPrice","type":"uint256"},{"indexed":false,"internalType":"uint256","name":"totalCost","type":"uint256"}],"name":"TransactionExecuted","type":"event"},{"inputs":[{"internalType":"string","name":"_txType1","type":"string"},{"internalType":"string","name":"_txType2","type":"string"}],"name":"compareTransactions","outputs":[{"internalType":"string","name":"","type":"string"}],"stateMutability":"pure","type":"function"},{"inputs":[{"internalType":"uint256","name":"","type":"uint256"}],"name":"complexMap","outputs":[{"internalType":"string","name":"","type":"string"}],"stateMutability":"view","type":"function"},{"inputs":[{"internalType":"uint256","name":"_key","type":"uint256"},{"internalType":"string","name":"_value","type":"string"}],"name":"complexTransaction","outputs":[],"stateMutability":"nonpayable","type":"function"},{"inputs":[{"internalType":"uint256","name":"_value","type":"uint256"}],"name":"simpleTransaction","outputs":[],"stateMutability":"nonpayable","type":"function"},{"inputs":[],"name":"simpleValue","outputs":[{"internalType":"uint256","name":"","type":"uint256"}],"stateMutability":"view","type":"function"},{"inputs":[{"internalType":"uint256","name":"","type":"uint256"}],"name":"storageArray","outputs":[{"internalType":"uint256","name":"","type":"uint256"}],"stateMutability":"view","type":"function"},{"inputs":[{"internalType":"uint256","name":"_value","type":"uint256"}],"name":"storageTransaction","outputs":[],"stateMutability":"nonpayable","type":"function"}],"evm":{"bytecode":{"linkReferences":{},"object":"6080604052348015600f57600080fd5b50610fbe8061001f6000396000f3fe608060405234801561001057600080fd5b506004361061007d5760003560e01c8063b6dceac81161005b578063b6dceac8146100fe578063d744ee031461011a578063eecb57d214610136578063f5b10459146101545761007d565b80630e031ab11461008257806339cf7f60146100b25780633e49c8f4146100ce575b600080fd5b61009c60048036038101906100979190610647565b610184565b6040516100a99190610683565b60405180910390f35b6100cc60048036038101906100c791906107e4565b6101a8565b005b6100e860048036038101906100e39190610647565b61023b565b6040516100f591906108bf565b60405180910390f35b61011860048036038101906101139190610647565b6102db565b005b610134600480360381019061012f9190610647565b61032a565b005b61013e61039b565b60405161014b9190610683565b60405180910390f35b61016e600480360381019061016991906108e1565b6103a1565b60405161017b91906108bf565b60405180910390f35b6001818154811061019457600080fd5b906000526020600020016000915090505481565b60005a9050816002600085815260200190815260200160002090816101cd9190610b65565b5060018390806001815401808255809150506001900390600052602060002001600090919091909150556102366040518060400160405280600781526020017f436f6d706c65780000000000000000000000000000000000000000000000000081525082610594565b505050565b6002602052806000526040600020600091509050805461025a90610988565b80601f016020809104026020016040519081016040528092919081815260200182805461028690610988565b80156102d35780601f106102a8576101008083540402835291602001916102d3565b820191906000526020600020905b8154815290600101906020018083116102b657829003601f168201915b505050505081565b60005a9050816000819055506103266040518060400160405280600681526020017f53696d706c65000000000000000000000000000000000000000000000000000081525082610594565b5050565b60005a905060018290806001815401808255809150506001900390600052602060002001600090919091909150556103976040518060400160405280600781526020017f53746f726167650000000000000000000000000000000000000000000000000081525082610594565b5050565b60005481565b60606000836040516020016103b69190610c73565b6040516020818303038152906040528051906020012090506000836040516020016103e19190610c73565b60405160208183030381529060405280519060200120905060405160200161040890610cd6565b604051602081830303815290604052805190602001208214801561044f575060405160200161043690610d37565b6040516020818303038152906040528051906020012081145b1561047657604051806080016040528060418152602001610f48604191399250505061058e565b60405160200161048590610cd6565b60405160208183030381529060405280519060200120821480156104cc57506040516020016104b390610d98565b6040516020818303038152906040528051906020012081145b156104f357604051806080016040528060418152602001610e9f604191399250505061058e565b60405160200161050290610d37565b6040516020818303038152906040528051906020012082148015610549575060405160200161053090610d98565b6040516020818303038152906040528051906020012081145b1561057057604051806080016040528060428152602001610f06604291399250505061058e565b604051806060016040528060268152602001610ee060269139925050505b92915050565b60005a826105a29190610ddc565b905060003a9050600081836105b79190610e10565b90507fee8d1e9aa16ebce7050ef672c5daacac8d0ddfd8edb7bfbd2395e762e855a31d858484846040516105ee9493929190610e52565b60405180910390a15050505050565b6000604051905090565b600080fd5b600080fd5b6000819050919050565b61062481610611565b811461062f57600080fd5b50565b6000813590506106418161061b565b92915050565b60006020828403121561065d5761065c610607565b5b600061066b84828501610632565b91505092915050565b61067d81610611565b82525050565b60006020820190506106986000830184610674565b92915050565b600080fd5b600080fd5b6000601f19601f8301169050919050565b7f4e487b7100000000000000000000000000000000000000000000000000000000600052604160045260246000fd5b6106f1826106a8565b810181811067ffffffffffffffff821117156107105761070f6106b9565b5b80604052505050565b60006107236105fd565b905061072f82826106e8565b919050565b600067ffffffffffffffff82111561074f5761074e6106b9565b5b610758826106a8565b9050602081019050919050565b82818337600083830152505050565b600061078761078284610734565b610719565b9050828152602081018484840111156107a3576107a26106a3565b5b6107ae848285610765565b509392505050565b600082601f8301126107cb576107ca61069e565b5b81356107db848260208601610774565b91505092915050565b600080604083850312156107fb576107fa610607565b5b600061080985828601610632565b925050602083013567ffffffffffffffff81111561082a5761082961060c565b5b610836858286016107b6565b9150509250929050565b600081519050919050565b600082825260208201905092915050565b60005b8381101561087a57808201518184015260208101905061085f565b60008484015250505050565b600061089182610840565b61089b818561084b565b93506108ab81856020860161085c565b6108b4816106a8565b840191505092915050565b600060208201905081810360008301526108d98184610886565b905092915050565b600080604083850312156108f8576108f7610607565b5b600083013567ffffffffffffffff8111156109165761091561060c565b5b610922858286016107b6565b925050602083013567ffffffffffffffff8111156109435761094261060c565b5b61094f858286016107b6565b9150509250929050565b7f4e487b7100000000000000000000000000000000000000000000000000000000600052602260045260246000fd5b600060028204905060018216806109a057607f821691505b6020821081036109b3576109b2610959565b5b50919050565b60008190508160005260206000209050919050565b60006020601f8301049050919050565b600082821b905092915050565b600060088302610a1b7fffffffffffffffffffffffffffffffffffffffffffffffffffffffffffffffff826109de565b610a2586836109de565b95508019841693508086168417925050509392505050565b6000819050919050565b6000610a62610a5d610a5884610611565b610a3d565b610611565b9050919050565b6000819050919050565b610a7c83610a47565b610a90610a8882610a69565b8484546109eb565b825550505050565b600090565b610aa5610a98565b610ab0818484610a73565b505050565b5b81811015610ad457610ac9600082610a9d565b600181019050610ab6565b5050565b601f821115610b1957610aea816109b9565b610af3846109ce565b81016020851015610b02578190505b610b16610b0e856109ce565b830182610ab5565b50505b505050565b600082821c905092915050565b6000610b3c60001984600802610b1e565b1980831691505092915050565b6000610b558383610b2b565b9150826002028217905092915050565b610b6e82610840565b67ffffffffffffffff811115610b8757610b866106b9565b5b610b918254610988565b610b9c828285610ad8565b600060209050601f831160018114610bcf5760008415610bbd578287015190505b610bc78582610b49565b865550610c2f565b601f198416610bdd866109b9565b60005b82811015610c0557848901518255600182019150602085019450602081019050610be0565b86831015610c225784890151610c1e601f891682610b2b565b8355505b6001600288020188555050505b505050505050565b600081905092915050565b6000610c4d82610840565b610c578185610c37565b9350610c6781856020860161085c565b80840191505092915050565b6000610c7f8284610c42565b915081905092915050565b7f53696d706c650000000000000000000000000000000000000000000000000000600082015250565b6000610cc0600683610c37565b9150610ccb82610c8a565b600682019050919050565b6000610ce182610cb3565b9150819050919050565b7f53746f7261676500000000000000000000000000000000000000000000000000600082015250565b6000610d21600783610c37565b9150610d2c82610ceb565b600782019050919050565b6000610d4282610d14565b9150819050919050565b7f436f6d706c657800000000000000000000000000000000000000000000000000600082015250565b6000610d82600783610c37565b9150610d8d82610d4c565b600782019050919050565b6000610da382610d75565b9150819050919050565b7f4e487b7100000000000000000000000000000000000000000000000000000000600052601160045260246000fd5b6000610de782610611565b9150610df283610611565b9250828203905081811115610e0a57610e09610dad565b5b92915050565b6000610e1b82610611565b9150610e2683610611565b9250828202610e3481610611565b91508282048414831517610e4b57610e4a610dad565b5b5092915050565b60006080820190508181036000830152610e6c8187610886565b9050610e7b6020830186610674565b610e886040830185610674565b610e956060830184610674565b9594505050505056fe436f6d706c6578207472616e73616374696f6e73207479706963616c6c7920636f7374206d6f7265207468616e2053696d706c65207472616e73616374696f6e7343616e6e6f7420636f6d70617265207468657365207472616e73616374696f6e207479706573436f6d706c6578207472616e73616374696f6e73207479706963616c6c7920636f7374206d6f7265207468616e2053746f72616765207472616e73616374696f6e7353746f72616765207472616e73616374696f6e73207479706963616c6c7920636f7374206d6f7265207468616e2053696d706c65207472616e73616374696f6e73a264697066735822122099415f7a05b8d6c191094fd4b49d53ebe1cf0727d2d852e3862f6e4c4b164dc164736f6c634300081c0033","opcodes":"PUSH1 0x80 PUSH1 0x40 MSTORE CALLVALUE DUP1 ISZERO PUSH1 0xF JUMPI PUSH1 0x0 DUP1 REVERT JUMPDEST POP PUSH2 0xFBE DUP1 PUSH2 0x1F PUSH1 0x0 CODECOPY PUSH1 0x0 RETURN INVALID PUSH1 0x80 PUSH1 0x40 MSTORE CALLVALUE DUP1 ISZERO PUSH2 0x10 JUMPI PUSH1 0x0 DUP1 REVERT JUMPDEST POP PUSH1 0x4 CALLDATASIZE LT PUSH2 0x7D JUMPI PUSH1 0x0 CALLDATALOAD PUSH1 0xE0 SHR DUP1 PUSH4 0xB6DCEAC8 GT PUSH2 0x5B JUMPI DUP1 PUSH4 0xB6DCEAC8 EQ PUSH2 0xFE JUMPI DUP1 PUSH4 0xD744EE03 EQ PUSH2 0x11A JUMPI DUP1 PUSH4 0xEECB57D2 EQ PUSH2 0x136 JUMPI DUP1 PUSH4 0xF5B10459 EQ PUSH2 0x154 JUMPI PUSH2 0x7D JUMP JUMPDEST DUP1 PUSH4 0xE031AB1 EQ PUSH2 0x82 JUMPI DUP1 PUSH4 0x39CF7F60 EQ PUSH2 0xB2 JUMPI DUP1 PUSH4 0x3E49C8F4 EQ PUSH2 0xCE JUMPI JUMPDEST PUSH1 0x0 DUP1 REVERT JUMPDEST PUSH2 0x9C PUSH1 0x4 DUP1 CALLDATASIZE SUB DUP2 ADD SWAP1 PUSH2 0x97 SWAP2 SWAP1 PUSH2 0x647 JUMP JUMPDEST PUSH2 0x184 JUMP JUMPDEST PUSH1 0x40 MLOAD PUSH2 0xA9 SWAP2 SWAP1 PUSH2 0x683 JUMP JUMPDEST PUSH1 0x40 MLOAD DUP1 SWAP2 SUB SWAP1 RETURN JUMPDEST PUSH2 0xCC PUSH1 0x4 DUP1 CALLDATASIZE SUB DUP2 ADD SWAP1 PUSH2 0xC7 SWAP2 SWAP1 PUSH2 0x7E4 JUMP JUMPDEST PUSH2 0x1A8 JUMP JUMPDEST STOP JUMPDEST PUSH2 0xE8 PUSH1 0x4 DUP1 CALLDATASIZE SUB DUP2 ADD SWAP1 PUSH2 0xE3 SWAP2 SWAP1 PUSH2 0x647 JUMP JUMPDEST PUSH2 0x23B JUMP JUMPDEST PUSH1 0x40 MLOAD PUSH2 0xF5 SWAP2 SWAP1 PUSH2 0x8BF JUMP JUMPDEST PUSH1 0x40 MLOAD DUP1 SWAP2 SUB SWAP1 RETURN JUMPDEST PUSH2 0x118 PUSH1 0x4 DUP1 CALLDATASIZE SUB DUP2 ADD SWAP1 PUSH2 0x113 SWAP2 SWAP1 PUSH2 0x647 JUMP JUMPDEST PUSH2 0x2DB JUMP JUMPDEST STOP JUMPDEST PUSH2 0x134 PUSH1 0x4 DUP1 CALLDATASIZE SUB DUP2 ADD SWAP1 PUSH2 0x12F SWAP2 SWAP1 PUSH2 0x647 JUMP JUMPDEST PUSH2 0x32A JUMP JUMPDEST STOP JUMPDEST PUSH2 0x13E PUSH2 0x39B JUMP JUMPDEST PUSH1 0x40 MLOAD PUSH2 0x14B SWAP2 SWAP1 PUSH2 0x683 JUMP JUMPDEST PUSH1 0x40 MLOAD DUP1 SWAP2 SUB SWAP1 RETURN JUMPDEST PUSH2 0x16E PUSH1 0x4 DUP1 CALLDATASIZE SUB DUP2 ADD SWAP1 PUSH2 0x169 SWAP2 SWAP1 PUSH2 0x8E1 JUMP JUMPDEST PUSH2 0x3A1 JUMP JUMPDEST PUSH1 0x40 MLOAD PUSH2 0x17B SWAP2 SWAP1 PUSH2 0x8BF JUMP JUMPDEST PUSH1 0x40 MLOAD DUP1 SWAP2 SUB SWAP1 RETURN JUMPDEST PUSH1 0x1 DUP2 DUP2 SLOAD DUP2 LT PUSH2 0x194 JUMPI PUSH1 0x0 DUP1 REVERT JUMPDEST SWAP1 PUSH1 0x0 MSTORE PUSH1 0x20 PUSH1 0x0 KECCAK256 ADD PUSH1 0x0 SWAP2 POP SWAP1 POP SLOAD DUP2 JUMP JUMPDEST PUSH1 0x0 GAS SWAP1 POP DUP2 PUSH1 0x2 PUSH1 0x0 DUP6 DUP2 MSTORE PUSH1 0x20 ADD SWAP1 DUP2 MSTORE PUSH1 0x20 ADD PUSH1 0x0 KECCAK256 SWAP1 DUP2 PUSH2 0x1CD SWAP2 SWAP1 PUSH2 0xB65 JUMP JUMPDEST POP PUSH1 0x1 DUP4 SWAP1 DUP1 PUSH1 0x1 DUP2 SLOAD ADD DUP1 DUP3 SSTORE DUP1 SWAP2 POP POP PUSH1 0x1 SWAP1 SUB SWAP1 PUSH1 0x0 MSTORE PUSH1 0x20 PUSH1 0x0 KECCAK256 ADD PUSH1 0x0 SWAP1 SWAP2 SWAP1 SWAP2 SWAP1 SWAP2 POP SSTORE PUSH2 0x236 PUSH1 0x40 MLOAD DUP1 PUSH1 0x40 ADD PUSH1 0x40 MSTORE DUP1 PUSH1 0x7 DUP2 MSTORE PUSH1 0x20 ADD PUSH32 0x436F6D706C657800000000000000000000000000000000000000000000000000 DUP2 MSTORE POP DUP3 PUSH2 0x594 JUMP JUMPDEST POP POP POP JUMP JUMPDEST PUSH1 0x2 PUSH1 0x20 MSTORE DUP1 PUSH1 0x0 MSTORE PUSH1 0x40 PUSH1 0x0 KECCAK256 PUSH1 0x0 SWAP2 POP SWAP1 POP DUP1 SLOAD PUSH2 0x25A SWAP1 PUSH2 0x988 JUMP JUMPDEST DUP1 PUSH1 0x1F ADD PUSH1 0x20 DUP1 SWAP2 DIV MUL PUSH1 0x20 ADD PUSH1 0x40 MLOAD SWAP1 DUP2 ADD PUSH1 0x40 MSTORE DUP1 SWAP3 SWAP2 SWAP1 DUP2 DUP2 MSTORE PUSH1 0x20 ADD DUP3 DUP1 SLOAD PUSH2 0x286 SWAP1 PUSH2 0x988 JUMP JUMPDEST DUP1 ISZERO PUSH2 0x2D3 JUMPI DUP1 PUSH1 0x1F LT PUSH2 0x2A8 JUMPI PUSH2 0x100 DUP1 DUP4 SLOAD DIV MUL DUP4 MSTORE SWAP2 PUSH1 0x20 ADD SWAP2 PUSH2 0x2D3 JUMP JUMPDEST DUP3 ADD SWAP2 SWAP1 PUSH1 0x0 MSTORE PUSH1 0x20 PUSH1 0x0 KECCAK256 SWAP1 JUMPDEST DUP2 SLOAD DUP2 MSTORE SWAP1 PUSH1 0x1 ADD SWAP1 PUSH1 0x20 ADD DUP1 DUP4 GT PUSH2 0x2B6 JUMPI DUP3 SWAP1 SUB PUSH1 0x1F AND DUP3 ADD SWAP2 JUMPDEST POP POP POP POP POP DUP2 JUMP JUMPDEST PUSH1 0x0 GAS SWAP1 POP DUP2 PUSH1 0x0 DUP2 SWAP1 SSTORE POP PUSH2 0x326 PUSH1 0x40 MLOAD DUP1 PUSH1 0x40 ADD PUSH1 0x40 MSTORE DUP1 PUSH1 0x6 DUP2 MSTORE PUSH1 0x20 ADD PUSH32 0x53696D706C650000000000000000000000000000000000000000000000000000 DUP2 MSTORE POP DUP3 PUSH2 0x594 JUMP JUMPDEST POP POP JUMP JUMPDEST PUSH1 0x0 GAS SWAP1 POP PUSH1 0x1 DUP3 SWAP1 DUP1 PUSH1 0x1 DUP2 SLOAD ADD DUP1 DUP3 SSTORE DUP1 SWAP2 POP POP PUSH1 0x1 SWAP1 SUB SWAP1 PUSH1 0x0 MSTORE PUSH1 0x20 PUSH1 0x0 KECCAK256 ADD PUSH1 0x0 SWAP1 SWAP2 SWAP1 SWAP2 SWAP1 SWAP2 POP SSTORE PUSH2 0x397 PUSH1 0x40 MLOAD DUP1 PUSH1 0x40 ADD PUSH1 0x40 MSTORE DUP1 PUSH1 0x7 DUP2 MSTORE PUSH1 0x20 ADD PUSH32 0x53746F7261676500000000000000000000000000000000000000000000000000 DUP2 MSTORE POP DUP3 PUSH2 0x594 JUMP JUMPDEST POP POP JUMP JUMPDEST PUSH1 0x0 SLOAD DUP2 JUMP JUMPDEST PUSH1 0x60 PUSH1 0x0 DUP4 PUSH1 0x40 MLOAD PUSH1 0x20 ADD PUSH2 0x3B6 SWAP2 SWAP1 PUSH2 0xC73 JUMP JUMPDEST PUSH1 0x40 MLOAD PUSH1 0x20 DUP2 DUP4 SUB SUB DUP2 MSTORE SWAP1 PUSH1 0x40 MSTORE DUP1 MLOAD SWAP1 PUSH1 0x20 ADD KECCAK256 SWAP1 POP PUSH1 0x0 DUP4 PUSH1 0x40 MLOAD PUSH1 0x20 ADD PUSH2 0x3E1 SWAP2 SWAP1 PUSH2 0xC73 JUMP JUMPDEST PUSH1 0x40 MLOAD PUSH1 0x20 DUP2 DUP4 SUB SUB DUP2 MSTORE SWAP1 PUSH1 0x40 MSTORE DUP1 MLOAD SWAP1 PUSH1 0x20 ADD KECCAK256 SWAP1 POP PUSH1 0x40 MLOAD PUSH1 0x20 ADD PUSH2 0x408 SWAP1 PUSH2 0xCD6 JUMP JUMPDEST PUSH1 0x40 MLOAD PUSH1 0x20 DUP2 DUP4 SUB SUB DUP2 MSTORE SWAP1 PUSH1 0x40 MSTORE DUP1 MLOAD SWAP1 PUSH1 0x20 ADD KECCAK256 DUP3 EQ DUP1 ISZERO PUSH2 0x44F JUMPI POP PUSH1 0x40 MLOAD PUSH1 0x20 ADD PUSH2 0x436 SWAP1 PUSH2 0xD37 JUMP JUMPDEST PUSH1 0x40 MLOAD PUSH1 0x20 DUP2 DUP4 SUB SUB DUP2 MSTORE SWAP1 PUSH1 0x40 MSTORE DUP1 MLOAD SWAP1 PUSH1 0x20 ADD KECCAK256 DUP2 EQ JUMPDEST ISZERO PUSH2 0x476 JUMPI PUSH1 0x40 MLOAD DUP1 PUSH1 0x80 ADD PUSH1 0x40 MSTORE DUP1 PUSH1 0x41 DUP2 MSTORE PUSH1 0x20 ADD PUSH2 0xF48 PUSH1 0x41 SWAP2 CODECOPY SWAP3 POP POP POP PUSH2 0x58E JUMP JUMPDEST PUSH1 0x40 MLOAD PUSH1 0x20 ADD PUSH2 0x485 SWAP1 PUSH2 0xCD6 JUMP JUMPDEST PUSH1 0x40 MLOAD PUSH1 0x20 DUP2 DUP4 SUB SUB DUP2 MSTORE SWAP1 PUSH1 0x40 MSTORE DUP1 MLOAD SWAP1 PUSH1 0x20 ADD KECCAK256 DUP3 EQ DUP1 ISZERO PUSH2 0x4CC JUMPI POP PUSH1 0x40 MLOAD PUSH1 0x20 ADD PUSH2 0x4B3 SWAP1 PUSH2 0xD98 JUMP JUMPDEST PUSH1 0x40 MLOAD PUSH1 0x20 DUP2 DUP4 SUB SUB DUP2 MSTORE SWAP1 PUSH1 0x40 MSTORE DUP1 MLOAD SWAP1 PUSH1 0x20 ADD KECCAK256 DUP2 EQ JUMPDEST ISZERO PUSH2 0x4F3 JUMPI PUSH1 0x40 MLOAD DUP1 PUSH1 0x80 ADD PUSH1 0x40 MSTORE DUP1 PUSH1 0x41 DUP2 MSTORE PUSH1 0x20 ADD PUSH2 0xE9F PUSH1 0x41 SWAP2 CODECOPY SWAP3 POP POP POP PUSH2 0x58E JUMP JUMPDEST PUSH1 0x40 MLOAD PUSH1 0x20 ADD PUSH2 0x502 SWAP1 PUSH2 0xD37 JUMP JUMPDEST PUSH1 0x40 MLOAD PUSH1 0x20 DUP2 DUP4 SUB SUB DUP2 MSTORE SWAP1 PUSH1 0x40 MSTORE DUP1 MLOAD SWAP1 PUSH1 0x20 ADD KECCAK256 DUP3 EQ DUP1 ISZERO PUSH2 0x549 JUMPI POP PUSH1 0x40 MLOAD PUSH1 0x20 ADD PUSH2 0x530 SWAP1 PUSH2 0xD98 JUMP JUMPDEST PUSH1 0x40 MLOAD PUSH1 0x20 DUP2 DUP4 SUB SUB DUP2 MSTORE SWAP1 PUSH1 0x40 MSTORE DUP1 MLOAD SWAP1 PUSH1 0x20 ADD KECCAK256 DUP2 EQ JUMPDEST ISZERO PUSH2 0x570 JUMPI PUSH1 0x40 MLOAD DUP1 PUSH1 0x80 ADD PUSH1 0x40 MSTORE DUP1 PUSH1 0x42 DUP2 MSTORE PUSH1 0x20 ADD PUSH2 0xF06 PUSH1 0x42 SWAP2 CODECOPY SWAP3 POP POP POP PUSH2 0x58E JUMP JUMPDEST PUSH1 0x40 MLOAD DUP1 PUSH1 0x60 ADD PUSH1 0x40 MSTORE DUP1 PUSH1 0x26 DUP2 MSTORE PUSH1 0x20 ADD PUSH2 0xEE0 PUSH1 0x26 SWAP2 CODECOPY SWAP3 POP POP POP JUMPDEST SWAP3 SWAP2 POP POP JUMP JUMPDEST PUSH1 0x0 GAS DUP3 PUSH2 0x5A2 SWAP2 SWAP1 PUSH2 0xDDC JUMP JUMPDEST SWAP1 POP PUSH1 0x0 GASPRICE SWAP1 POP PUSH1 0x0 DUP2 DUP4 PUSH2 0x5B7 SWAP2 SWAP1 PUSH2 0xE10 JUMP JUMPDEST SWAP1 POP PUSH32 0xEE8D1E9AA16EBCE7050EF672C5DAACAC8D0DDFD8EDB7BFBD2395E762E855A31D DUP6 DUP5 DUP5 DUP5 PUSH1 0x40 MLOAD PUSH2 0x5EE SWAP5 SWAP4 SWAP3 SWAP2 SWAP1 PUSH2 0xE52 JUMP JUMPDEST PUSH1 0x40 MLOAD DUP1 SWAP2 SUB SWAP1 LOG1 POP POP POP POP POP JUMP JUMPDEST PUSH1 0x0 PUSH1 0x40 MLOAD SWAP1 POP SWAP1 JUMP JUMPDEST PUSH1 0x0 DUP1 REVERT JUMPDEST PUSH1 0x0 DUP1 REVERT JUMPDEST PUSH1 0x0 DUP2 SWAP1 POP SWAP2 SWAP1 POP JUMP JUMPDEST PUSH2 0x624 DUP2 PUSH2 0x611 JUMP JUMPDEST DUP2 EQ PUSH2 0x62F JUMPI PUSH1 0x0 DUP1 REVERT JUMPDEST POP JUMP JUMPDEST PUSH1 0x0 DUP2 CALLDATALOAD SWAP1 POP PUSH2 0x641 DUP2 PUSH2 0x61B JUMP JUMPDEST SWAP3 SWAP2 POP POP JUMP JUMPDEST PUSH1 0x0 PUSH1 0x20 DUP3 DUP5 SUB SLT ISZERO PUSH2 0x65D JUMPI PUSH2 0x65C PUSH2 0x607 JUMP JUMPDEST JUMPDEST PUSH1 0x0 PUSH2 0x66B DUP5 DUP3 DUP6 ADD PUSH2 0x632 JUMP JUMPDEST SWAP2 POP POP SWAP3 SWAP2 POP POP JUMP JUMPDEST PUSH2 0x67D DUP2 PUSH2 0x611 JUMP JUMPDEST DUP3 MSTORE POP POP JUMP JUMPDEST PUSH1 0x0 PUSH1 0x20 DUP3 ADD SWAP1 POP PUSH2 0x698 PUSH1 0x0 DUP4 ADD DUP5 PUSH2 0x674 JUMP JUMPDEST SWAP3 SWAP2 POP POP JUMP JUMPDEST PUSH1 0x0 DUP1 REVERT JUMPDEST PUSH1 0x0 DUP1 REVERT JUMPDEST PUSH1 0x0 PUSH1 0x1F NOT PUSH1 0x1F DUP4 ADD AND SWAP1 POP SWAP2 SWAP1 POP JUMP JUMPDEST PUSH32 0x4E487B7100000000000000000000000000000000000000000000000000000000 PUSH1 0x0 MSTORE PUSH1 0x41 PUSH1 0x4 MSTORE PUSH1 0x24 PUSH1 0x0 REVERT JUMPDEST PUSH2 0x6F1 DUP3 PUSH2 0x6A8 JUMP JUMPDEST DUP2 ADD DUP2 DUP2 LT PUSH8 0xFFFFFFFFFFFFFFFF DUP3 GT OR ISZERO PUSH2 0x710 JUMPI PUSH2 0x70F PUSH2 0x6B9 JUMP JUMPDEST JUMPDEST DUP1 PUSH1 0x40 MSTORE POP POP POP JUMP JUMPDEST PUSH1 0x0 PUSH2 0x723 PUSH2 0x5FD JUMP JUMPDEST SWAP1 POP PUSH2 0x72F DUP3 DUP3 PUSH2 0x6E8 JUMP JUMPDEST SWAP2 SWAP1 POP JUMP JUMPDEST PUSH1 0x0 PUSH8 0xFFFFFFFFFFFFFFFF DUP3 GT ISZERO PUSH2 0x74F JUMPI PUSH2 0x74E PUSH2 0x6B9 JUMP JUMPDEST JUMPDEST PUSH2 0x758 DUP3 PUSH2 0x6A8 JUMP JUMPDEST SWAP1 POP PUSH1 0x20 DUP2 ADD SWAP1 POP SWAP2 SWAP1 POP JUMP JUMPDEST DUP3 DUP2 DUP4 CALLDATACOPY PUSH1 0x0 DUP4 DUP4 ADD MSTORE POP POP POP JUMP JUMPDEST PUSH1 0x0 PUSH2 0x787 PUSH2 0x782 DUP5 PUSH2 0x734 JUMP JUMPDEST PUSH2 0x719 JUMP JUMPDEST SWAP1 POP DUP3 DUP2 MSTORE PUSH1 0x20 DUP2 ADD DUP5 DUP5 DUP5 ADD GT ISZERO PUSH2 0x7A3 JUMPI PUSH2 0x7A2 PUSH2 0x6A3 JUMP JUMPDEST JUMPDEST PUSH2 0x7AE DUP5 DUP3 DUP6 PUSH2 0x765 JUMP JUMPDEST POP SWAP4 SWAP3 POP POP POP JUMP JUMPDEST PUSH1 0x0 DUP3 PUSH1 0x1F DUP4 ADD SLT PUSH2 0x7CB JUMPI PUSH2 0x7CA PUSH2 0x69E JUMP JUMPDEST JUMPDEST DUP2 CALLDATALOAD PUSH2 0x7DB DUP5 DUP3 PUSH1 0x20 DUP7 ADD PUSH2 0x774 JUMP JUMPDEST SWAP2 POP POP SWAP3 SWAP2 POP POP JUMP JUMPDEST PUSH1 0x0 DUP1 PUSH1 0x40 DUP4 DUP6 SUB SLT ISZERO PUSH2 0x7FB JUMPI PUSH2 0x7FA PUSH2 0x607 JUMP JUMPDEST JUMPDEST PUSH1 0x0 PUSH2 0x809 DUP6 DUP3 DUP7 ADD PUSH2 0x632 JUMP JUMPDEST SWAP3 POP POP PUSH1 0x20 DUP4 ADD CALLDATALOAD PUSH8 0xFFFFFFFFFFFFFFFF DUP2 GT ISZERO PUSH2 0x82A JUMPI PUSH2 0x829 PUSH2 0x60C JUMP JUMPDEST JUMPDEST PUSH2 0x836 DUP6 DUP3 DUP7 ADD PUSH2 0x7B6 JUMP JUMPDEST SWAP2 POP POP SWAP3 POP SWAP3 SWAP1 POP JUMP JUMPDEST PUSH1 0x0 DUP2 MLOAD SWAP1 POP SWAP2 SWAP1 POP JUMP JUMPDEST PUSH1 0x0 DUP3 DUP3 MSTORE PUSH1 0x20 DUP3 ADD SWAP1 POP SWAP3 SWAP2 POP POP JUMP JUMPDEST PUSH1 0x0 JUMPDEST DUP4 DUP2 LT ISZERO PUSH2 0x87A JUMPI DUP1 DUP3 ADD MLOAD DUP2 DUP5 ADD MSTORE PUSH1 0x20 DUP2 ADD SWAP1 POP PUSH2 0x85F JUMP JUMPDEST PUSH1 0x0 DUP5 DUP5 ADD MSTORE POP POP POP POP JUMP JUMPDEST PUSH1 0x0 PUSH2 0x891 DUP3 PUSH2 0x840 JUMP JUMPDEST PUSH2 0x89B DUP2 DUP6 PUSH2 0x84B JUMP JUMPDEST SWAP4 POP PUSH2 0x8AB DUP2 DUP6 PUSH1 0x20 DUP7 ADD PUSH2 0x85C JUMP JUMPDEST PUSH2 0x8B4 DUP2 PUSH2 0x6A8 JUMP JUMPDEST DUP5 ADD SWAP2 POP POP SWAP3 SWAP2 POP POP JUMP JUMPDEST PUSH1 0x0 PUSH1 0x20 DUP3 ADD SWAP1 POP DUP2 DUP2 SUB PUSH1 0x0 DUP4 ADD MSTORE PUSH2 0x8D9 DUP2 DUP5 PUSH2 0x886 JUMP JUMPDEST SWAP1 POP SWAP3 SWAP2 POP POP JUMP JUMPDEST PUSH1 0x0 DUP1 PUSH1 0x40 DUP4 DUP6 SUB SLT ISZERO PUSH2 0x8F8 JUMPI PUSH2 0x8F7 PUSH2 0x607 JUMP JUMPDEST JUMPDEST PUSH1 0x0 DUP4 ADD CALLDATALOAD PUSH8 0xFFFFFFFFFFFFFFFF DUP2 GT ISZERO PUSH2 0x916 JUMPI PUSH2 0x915 PUSH2 0x60C JUMP JUMPDEST JUMPDEST PUSH2 0x922 DUP6 DUP3 DUP7 ADD PUSH2 0x7B6 JUMP JUMPDEST SWAP3 POP POP PUSH1 0x20 DUP4 ADD CALLDATALOAD PUSH8 0xFFFFFFFFFFFFFFFF DUP2 GT ISZERO PUSH2 0x943 JUMPI PUSH2 0x942 PUSH2 0x60C JUMP JUMPDEST JUMPDEST PUSH2 0x94F DUP6 DUP3 DUP7 ADD PUSH2 0x7B6 JUMP JUMPDEST SWAP2 POP POP SWAP3 POP SWAP3 SWAP1 POP JUMP JUMPDEST PUSH32 0x4E487B7100000000000000000000000000000000000000000000000000000000 PUSH1 0x0 MSTORE PUSH1 0x22 PUSH1 0x4 MSTORE PUSH1 0x24 PUSH1 0x0 REVERT JUMPDEST PUSH1 0x0 PUSH1 0x2 DUP3 DIV SWAP1 POP PUSH1 0x1 DUP3 AND DUP1 PUSH2 0x9A0 JUMPI PUSH1 0x7F DUP3 AND SWAP2 POP JUMPDEST PUSH1 0x20 DUP3 LT DUP2 SUB PUSH2 0x9B3 JUMPI PUSH2 0x9B2 PUSH2 0x959 JUMP JUMPDEST JUMPDEST POP SWAP2 SWAP1 POP JUMP JUMPDEST PUSH1 0x0 DUP2 SWAP1 POP DUP2 PUSH1 0x0 MSTORE PUSH1 0x20 PUSH1 0x0 KECCAK256 SWAP1 POP SWAP2 SWAP1 POP JUMP JUMPDEST PUSH1 0x0 PUSH1 0x20 PUSH1 0x1F DUP4 ADD DIV SWAP1 POP SWAP2 SWAP1 POP JUMP JUMPDEST PUSH1 0x0 DUP3 DUP3 SHL SWAP1 POP SWAP3 SWAP2 POP POP JUMP JUMPDEST PUSH1 0x0 PUSH1 0x8 DUP4 MUL PUSH2 0xA1B PUSH32 0xFFFFFFFFFFFFFFFFFFFFFFFFFFFFFFFFFFFFFFFFFFFFFFFFFFFFFFFFFFFFFFFF DUP3 PUSH2 0x9DE JUMP JUMPDEST PUSH2 0xA25 DUP7 DUP4 PUSH2 0x9DE JUMP JUMPDEST SWAP6 POP DUP1 NOT DUP5 AND SWAP4 POP DUP1 DUP7 AND DUP5 OR SWAP3 POP POP POP SWAP4 SWAP3 POP POP POP JUMP JUMPDEST PUSH1 0x0 DUP2 SWAP1 POP SWAP2 SWAP1 POP JUMP JUMPDEST PUSH1 0x0 PUSH2 0xA62 PUSH2 0xA5D PUSH2 0xA58 DUP5 PUSH2 0x611 JUMP JUMPDEST PUSH2 0xA3D JUMP JUMPDEST PUSH2 0x611 JUMP JUMPDEST SWAP1 POP SWAP2 SWAP1 POP JUMP JUMPDEST PUSH1 0x0 DUP2 SWAP1 POP SWAP2 SWAP1 POP JUMP JUMPDEST PUSH2 0xA7C DUP4 PUSH2 0xA47 JUMP JUMPDEST PUSH2 0xA90 PUSH2 0xA88 DUP3 PUSH2 0xA69 JUMP JUMPDEST DUP5 DUP5 SLOAD PUSH2 0x9EB JUMP JUMPDEST DUP3 SSTORE POP POP POP POP JUMP JUMPDEST PUSH1 0x0 SWAP1 JUMP JUMPDEST PUSH2 0xAA5 PUSH2 0xA98 JUMP JUMPDEST PUSH2 0xAB0 DUP2 DUP5 DUP5 PUSH2 0xA73 JUMP JUMPDEST POP POP POP JUMP JUMPDEST JUMPDEST DUP2 DUP2 LT ISZERO PUSH2 0xAD4 JUMPI PUSH2 0xAC9 PUSH1 0x0 DUP3 PUSH2 0xA9D JUMP JUMPDEST PUSH1 0x1 DUP2 ADD SWAP1 POP PUSH2 0xAB6 JUMP JUMPDEST POP POP JUMP JUMPDEST PUSH1 0x1F DUP3 GT ISZERO PUSH2 0xB19 JUMPI PUSH2 0xAEA DUP2 PUSH2 0x9B9 JUMP JUMPDEST PUSH2 0xAF3 DUP5 PUSH2 0x9CE JUMP JUMPDEST DUP2 ADD PUSH1 0x20 DUP6 LT ISZERO PUSH2 0xB02 JUMPI DUP2 SWAP1 POP JUMPDEST PUSH2 0xB16 PUSH2 0xB0E DUP6 PUSH2 0x9CE JUMP JUMPDEST DUP4 ADD DUP3 PUSH2 0xAB5 JUMP JUMPDEST POP POP JUMPDEST POP POP POP JUMP JUMPDEST PUSH1 0x0 DUP3 DUP3 SHR SWAP1 POP SWAP3 SWAP2 POP POP JUMP JUMPDEST PUSH1 0x0 PUSH2 0xB3C PUSH1 0x0 NOT DUP5 PUSH1 0x8 MUL PUSH2 0xB1E JUMP JUMPDEST NOT DUP1 DUP4 AND SWAP2 POP POP SWAP3 SWAP2 POP POP JUMP JUMPDEST PUSH1 0x0 PUSH2 0xB55 DUP4 DUP4 PUSH2 0xB2B JUMP JUMPDEST SWAP2 POP DUP3 PUSH1 0x2 MUL DUP3 OR SWAP1 POP SWAP3 SWAP2 POP POP JUMP JUMPDEST PUSH2 0xB6E DUP3 PUSH2 0x840 JUMP JUMPDEST PUSH8 0xFFFFFFFFFFFFFFFF DUP2 GT ISZERO PUSH2 0xB87 JUMPI PUSH2 0xB86 PUSH2 0x6B9 JUMP JUMPDEST JUMPDEST PUSH2 0xB91 DUP3 SLOAD PUSH2 0x988 JUMP JUMPDEST PUSH2 0xB9C DUP3 DUP3 DUP6 PUSH2 0xAD8 JUMP JUMPDEST PUSH1 0x0 PUSH1 0x20 SWAP1 POP PUSH1 0x1F DUP4 GT PUSH1 0x1 DUP2 EQ PUSH2 0xBCF JUMPI PUSH1 0x0 DUP5 ISZERO PUSH2 0xBBD JUMPI DUP3 DUP8 ADD MLOAD SWAP1 POP JUMPDEST PUSH2 0xBC7 DUP6 DUP3 PUSH2 0xB49 JUMP JUMPDEST DUP7 SSTORE POP PUSH2 0xC2F JUMP JUMPDEST PUSH1 0x1F NOT DUP5 AND PUSH2 0xBDD DUP7 PUSH2 0x9B9 JUMP JUMPDEST PUSH1 0x0 JUMPDEST DUP3 DUP2 LT ISZERO PUSH2 0xC05 JUMPI DUP5 DUP10 ADD MLOAD DUP3 SSTORE PUSH1 0x1 DUP3 ADD SWAP2 POP PUSH1 0x20 DUP6 ADD SWAP5 POP PUSH1 0x20 DUP2 ADD SWAP1 POP PUSH2 0xBE0 JUMP JUMPDEST DUP7 DUP4 LT ISZERO PUSH2 0xC22 JUMPI DUP5 DUP10 ADD MLOAD PUSH2 0xC1E PUSH1 0x1F DUP10 AND DUP3 PUSH2 0xB2B JUMP JUMPDEST DUP4 SSTORE POP JUMPDEST PUSH1 0x1 PUSH1 0x2 DUP9 MUL ADD DUP9 SSTORE POP POP POP JUMPDEST POP POP POP POP POP POP JUMP JUMPDEST PUSH1 0x0 DUP2 SWAP1 POP SWAP3 SWAP2 POP POP JUMP JUMPDEST PUSH1 0x0 PUSH2 0xC4D DUP3 PUSH2 0x840 JUMP JUMPDEST PUSH2 0xC57 DUP2 DUP6 PUSH2 0xC37 JUMP JUMPDEST SWAP4 POP PUSH2 0xC67 DUP2 DUP6 PUSH1 0x20 DUP7 ADD PUSH2 0x85C JUMP JUMPDEST DUP1 DUP5 ADD SWAP2 POP POP SWAP3 SWAP2 POP POP JUMP JUMPDEST PUSH1 0x0 PUSH2 0xC7F DUP3 DUP5 PUSH2 0xC42 JUMP JUMPDEST SWAP2 POP DUP2 SWAP1 POP SWAP3 SWAP2 POP POP JUMP JUMPDEST PUSH32 0x53696D706C650000000000000000000000000000000000000000000000000000 PUSH1 0x0 DUP3 ADD MSTORE POP JUMP JUMPDEST PUSH1 0x0 PUSH2 0xCC0 PUSH1 0x6 DUP4 PUSH2 0xC37 JUMP JUMPDEST SWAP2 POP PUSH2 0xCCB DUP3 PUSH2 0xC8A JUMP JUMPDEST PUSH1 0x6 DUP3 ADD SWAP1 POP SWAP2 SWAP1 POP JUMP JUMPDEST PUSH1 0x0 PUSH2 0xCE1 DUP3 PUSH2 0xCB3 JUMP JUMPDEST SWAP2 POP DUP2 SWAP1 POP SWAP2 SWAP1 POP JUMP JUMPDEST PUSH32 0x53746F7261676500000000000000000000000000000000000000000000000000 PUSH1 0x0 DUP3 ADD MSTORE POP JUMP JUMPDEST PUSH1 0x0 PUSH2 0xD21 PUSH1 0x7 DUP4 PUSH2 0xC37 JUMP JUMPDEST SWAP2 POP PUSH2 0xD2C DUP3 PUSH2 0xCEB JUMP JUMPDEST PUSH1 0x7 DUP3 ADD SWAP1 POP SWAP2 SWAP1 POP JUMP JUMPDEST PUSH1 0x0 PUSH2 0xD42 DUP3 PUSH2 0xD14 JUMP JUMPDEST SWAP2 POP DUP2 SWAP1 POP SWAP2 SWAP1 POP JUMP JUMPDEST PUSH32 0x436F6D706C657800000000000000000000000000000000000000000000000000 PUSH1 0x0 DUP3 ADD MSTORE POP JUMP JUMPDEST PUSH1 0x0 PUSH2 0xD82 PUSH1 0x7 DUP4 PUSH2 0xC37 JUMP JUMPDEST SWAP2 POP PUSH2 0xD8D DUP3 PUSH2 0xD4C JUMP JUMPDEST PUSH1 0x7 DUP3 ADD SWAP1 POP SWAP2 SWAP1 POP JUMP JUMPDEST PUSH1 0x0 PUSH2 0xDA3 DUP3 PUSH2 0xD75 JUMP JUMPDEST SWAP2 POP DUP2 SWAP1 POP SWAP2 SWAP1 POP JUMP JUMPDEST PUSH32 0x4E487B7100000000000000000000000000000000000000000000000000000000 PUSH1 0x0 MSTORE PUSH1 0x11 PUSH1 0x4 MSTORE PUSH1 0x24 PUSH1 0x0 REVERT JUMPDEST PUSH1 0x0 PUSH2 0xDE7 DUP3 PUSH2 0x611 JUMP JUMPDEST SWAP2 POP PUSH2 0xDF2 DUP4 PUSH2 0x611 JUMP JUMPDEST SWAP3 POP DUP3 DUP3 SUB SWAP1 POP DUP2 DUP2 GT ISZERO PUSH2 0xE0A JUMPI PUSH2 0xE09 PUSH2 0xDAD JUMP JUMPDEST JUMPDEST SWAP3 SWAP2 POP POP JUMP JUMPDEST PUSH1 0x0 PUSH2 0xE1B DUP3 PUSH2 0x611 JUMP JUMPDEST SWAP2 POP PUSH2 0xE26 DUP4 PUSH2 0x611 JUMP JUMPDEST SWAP3 POP DUP3 DUP3 MUL PUSH2 0xE34 DUP2 PUSH2 0x611 JUMP JUMPDEST SWAP2 POP DUP3 DUP3 DIV DUP5 EQ DUP4 ISZERO OR PUSH2 0xE4B JUMPI PUSH2 0xE4A PUSH2 0xDAD JUMP JUMPDEST JUMPDEST POP SWAP3 SWAP2 POP POP JUMP JUMPDEST PUSH1 0x0 PUSH1 0x80 DUP3 ADD SWAP1 POP DUP2 DUP2 SUB PUSH1 0x0 DUP4 ADD MSTORE PUSH2 0xE6C DUP2 DUP8 PUSH2 0x886 JUMP JUMPDEST SWAP1 POP PUSH2 0xE7B PUSH1 0x20 DUP4 ADD DUP7 PUSH2 0x674 JUMP JUMPDEST PUSH2 0xE88 PUSH1 0x40 DUP4 ADD DUP6 PUSH2 0x674 JUMP JUMPDEST PUSH2 0xE95 PUSH1 0x60 DUP4 ADD DUP5 PUSH2 0x674 JUMP JUMPDEST SWAP6 SWAP5 POP POP POP POP POP JUMP INVALID NUMBER PUSH16 0x6D706C6578207472616E73616374696F PUSH15 0x73207479706963616C6C7920636F73 PUSH21 0x206D6F7265207468616E2053696D706C6520747261 PUSH15 0x73616374696F6E7343616E6E6F7420 PUSH4 0x6F6D7061 PUSH19 0x65207468657365207472616E73616374696F6E KECCAK256 PUSH21 0x79706573436F6D706C6578207472616E7361637469 PUSH16 0x6E73207479706963616C6C7920636F73 PUSH21 0x206D6F7265207468616E2053746F72616765207472 PUSH2 0x6E73 PUSH2 0x6374 PUSH10 0x6F6E7353746F72616765 KECCAK256 PUSH21 0x72616E73616374696F6E73207479706963616C6C79 KECCAK256 PUSH4 0x6F737420 PUSH14 0x6F7265207468616E2053696D706C PUSH6 0x207472616E73 PUSH2 0x6374 PUSH10 0x6F6E73A2646970667358 0x22 SLT KECCAK256 SWAP10 COINBASE PUSH0 PUSH27 0x5B8D6C191094FD4B49D53EBE1CF0727D2D852E3862F6E4C4B164D 0xC1 PUSH5 0x736F6C6343 STOP ADDMOD SHR STOP CALLER "},"methodIdentifiers":{"compareTransactions(string,string)":"f5b10459","complexMap(uint256)":"3e49c8f4","complexTransaction(uint256,string)":"39cf7f60","simpleTransaction(uint256)":"b6dceac8","simpleValue()":"eecb57d2","storageArray(uint256)":"0e031ab1","storageTransaction(uint256)":"d744ee03"}}}}}