{
  "_format": "hh-sol-artifact-1",
  "contractName": "Twitter",
  "sourceName": "contracts/Twitter.sol",
  "abi": [
    {
      "anonymous": false,
      "inputs": [
        {
          "indexed": false,
          "internalType": "uint256",
          "name": "id",
          "type": "uint256"
        },
        {
          "indexed": true,
          "internalType": "address",
          "name": "user",
          "type": "address"
        },
        {
          "indexed": false,
          "internalType": "string",
          "name": "content",
          "type": "string"
        },
        {
          "indexed": false,
          "internalType": "uint256",
          "name": "timestamp",
          "type": "uint256"
        }
      ],
      "name": "TweetPosted",
      "type": "event"
    },
    {
      "inputs": [
        {
          "internalType": "uint256",
          "name": "_id",
          "type": "uint256"
        }
      ],
      "name": "getTweet",
      "outputs": [
        {
          "components": [
            {
              "internalType": "uint256",
              "name": "id",
              "type": "uint256"
            },
            {
              "internalType": "address",
              "name": "user",
              "type": "address"
            },
            {
              "internalType": "string",
              "name": "content",
              "type": "string"
            },
            {
              "internalType": "uint256",
              "name": "timestamp",
              "type": "uint256"
            }
          ],
          "internalType": "struct Twitter.Tweet",
          "name": "",
          "type": "tuple"
        }
      ],
      "stateMutability": "view",
      "type": "function"
    },
    {
      "inputs": [
        {
          "internalType": "address",
          "name": "_user",
          "type": "address"
        }
      ],
      "name": "getUserTweets",
      "outputs": [
        {
          "internalType": "uint256[]",
          "name": "",
          "type": "uint256[]"
        }
      ],
      "stateMutability": "view",
      "type": "function"
    },
    {
      "inputs": [
        {
          "internalType": "string",
          "name": "_content",
          "type": "string"
        }
      ],
      "name": "postTweet",
      "outputs": [],
      "stateMutability": "nonpayable",
      "type": "function"
    },
    {
      "inputs": [
        {
          "internalType": "uint256",
          "name": "",
          "type": "uint256"
        }
      ],
      "name": "tweets",
      "outputs": [
        {
          "internalType": "uint256",
          "name": "id",
          "type": "uint256"
        },
        {
          "internalType": "address",
          "name": "user",
          "type": "address"
        },
        {
          "internalType": "string",
          "name": "content",
          "type": "string"
        },
        {
          "internalType": "uint256",
          "name": "timestamp",
          "type": "uint256"
        }
      ],
      "stateMutability": "view",
      "type": "function"
    },
    {
      "inputs": [
        {
          "internalType": "address",
          "name": "",
          "type": "address"
        },
        {
          "internalType": "uint256",
          "name": "",
          "type": "uint256"
        }
      ],
      "name": "userTweets",
      "outputs": [
        {
          "internalType": "uint256",
          "name": "",
          "type": "uint256"
        }
      ],
      "stateMutability": "view",
      "type": "function"
    }
  ],
  "bytecode": "0x6080604052348015600f57600080fd5b5061116d8061001f6000396000f3fe608060405234801561001057600080fd5b50600436106100575760003560e01c80630cbc3dc41461005c5780632e06f347146100785780632f5899d7146100a8578063c3ad5ecb146100d8578063e8d857b014610108575b600080fd5b61007660048036038101906100719190610801565b61013b565b005b610092600480360381019061008d91906108de565b61035c565b60405161009f919061092d565b60405180910390f35b6100c260048036038101906100bd9190610948565b61038d565b6040516100cf9190610a33565b60405180910390f35b6100f260048036038101906100ed9190610a55565b610424565b6040516100ff9190610b73565b60405180910390f35b610122600480360381019061011d9190610a55565b610591565b6040516101329493929190610bee565b60405180910390f35b600081511161017f576040517f08c379a000000000000000000000000000000000000000000000000000000000815260040161017690610c86565b60405180910390fd5b610118815111156101c5576040517f08c379a00000000000000000000000000000000000000000000000000000000081526004016101bc90610d18565b60405180910390fd5b604051806080016040528060005481526020013373ffffffffffffffffffffffffffffffffffffffff1681526020018281526020014281525060016000805481526020019081526020016000206000820151816000015560208201518160010160006101000a81548173ffffffffffffffffffffffffffffffffffffffff021916908373ffffffffffffffffffffffffffffffffffffffff16021790555060408201518160020190816102789190610f44565b5060608201518160030155905050600260003373ffffffffffffffffffffffffffffffffffffffff1673ffffffffffffffffffffffffffffffffffffffff16815260200190815260200160002060005490806001815401808255809150506001900390600052602060002001600090919091909150553373ffffffffffffffffffffffffffffffffffffffff167f402e74171428e0feda2338cc63eb21f06922f0c84d357ea2a0b4c5fd21f20190600054834260405161033a93929190611016565b60405180910390a260008081548092919061035490611083565b919050555050565b6002602052816000526040600020818154811061037857600080fd5b90600052602060002001600091509150505481565b6060600260008373ffffffffffffffffffffffffffffffffffffffff1673ffffffffffffffffffffffffffffffffffffffff16815260200190815260200160002080548060200260200160405190810160405280929190818152602001828054801561041857602002820191906000526020600020905b815481526020019060010190808311610404575b50505050509050919050565b61042c610669565b6000548210610470576040517f08c379a000000000000000000000000000000000000000000000000000000000815260040161046790611117565b60405180910390fd5b60016000838152602001908152602001600020604051806080016040529081600082015481526020016001820160009054906101000a900473ffffffffffffffffffffffffffffffffffffffff1673ffffffffffffffffffffffffffffffffffffffff1673ffffffffffffffffffffffffffffffffffffffff1681526020016002820180546104fe90610d67565b80601f016020809104026020016040519081016040528092919081815260200182805461052a90610d67565b80156105775780601f1061054c57610100808354040283529160200191610577565b820191906000526020600020905b81548152906001019060200180831161055a57829003601f168201915b505050505081526020016003820154815250509050919050565b60016020528060005260406000206000915090508060000154908060010160009054906101000a900473ffffffffffffffffffffffffffffffffffffffff16908060020180546105e090610d67565b80601f016020809104026020016040519081016040528092919081815260200182805461060c90610d67565b80156106595780601f1061062e57610100808354040283529160200191610659565b820191906000526020600020905b81548152906001019060200180831161063c57829003601f168201915b5050505050908060030154905084565b604051806080016040528060008152602001600073ffffffffffffffffffffffffffffffffffffffff16815260200160608152602001600081525090565b6000604051905090565b600080fd5b600080fd5b600080fd5b600080fd5b6000601f19601f8301169050919050565b7f4e487b7100000000000000000000000000000000000000000000000000000000600052604160045260246000fd5b61070e826106c5565b810181811067ffffffffffffffff8211171561072d5761072c6106d6565b5b80604052505050565b60006107406106a7565b905061074c8282610705565b919050565b600067ffffffffffffffff82111561076c5761076b6106d6565b5b610775826106c5565b9050602081019050919050565b82818337600083830152505050565b60006107a461079f84610751565b610736565b9050828152602081018484840111156107c0576107bf6106c0565b5b6107cb848285610782565b509392505050565b600082601f8301126107e8576107e76106bb565b5b81356107f8848260208601610791565b91505092915050565b600060208284031215610817576108166106b1565b5b600082013567ffffffffffffffff811115610835576108346106b6565b5b610841848285016107d3565b91505092915050565b600073ffffffffffffffffffffffffffffffffffffffff82169050919050565b60006108758261084a565b9050919050565b6108858161086a565b811461089057600080fd5b50565b6000813590506108a28161087c565b92915050565b6000819050919050565b6108bb816108a8565b81146108c657600080fd5b50565b6000813590506108d8816108b2565b92915050565b600080604083850312156108f5576108f46106b1565b5b600061090385828601610893565b9250506020610914858286016108c9565b9150509250929050565b610927816108a8565b82525050565b6000602082019050610942600083018461091e565b92915050565b60006020828403121561095e5761095d6106b1565b5b600061096c84828501610893565b91505092915050565b600081519050919050565b600082825260208201905092915050565b6000819050602082019050919050565b6109aa816108a8565b82525050565b60006109bc83836109a1565b60208301905092915050565b6000602082019050919050565b60006109e082610975565b6109ea8185610980565b93506109f583610991565b8060005b83811015610a26578151610a0d88826109b0565b9750610a18836109c8565b9250506001810190506109f9565b5085935050505092915050565b60006020820190508181036000830152610a4d81846109d5565b905092915050565b600060208284031215610a6b57610a6a6106b1565b5b6000610a79848285016108c9565b91505092915050565b610a8b8161086a565b82525050565b600081519050919050565b600082825260208201905092915050565b60005b83811015610acb578082015181840152602081019050610ab0565b60008484015250505050565b6000610ae282610a91565b610aec8185610a9c565b9350610afc818560208601610aad565b610b05816106c5565b840191505092915050565b6000608083016000830151610b2860008601826109a1565b506020830151610b3b6020860182610a82565b5060408301518482036040860152610b538282610ad7565b9150506060830151610b6860608601826109a1565b508091505092915050565b60006020820190508181036000830152610b8d8184610b10565b905092915050565b610b9e8161086a565b82525050565b600082825260208201905092915050565b6000610bc082610a91565b610bca8185610ba4565b9350610bda818560208601610aad565b610be3816106c5565b840191505092915050565b6000608082019050610c03600083018761091e565b610c106020830186610b95565b8181036040830152610c228185610bb5565b9050610c31606083018461091e565b95945050505050565b7f547765657420636f6e74656e742063616e6e6f7420626520656d707479000000600082015250565b6000610c70601d83610ba4565b9150610c7b82610c3a565b602082019050919050565b60006020820190508181036000830152610c9f81610c63565b9050919050565b7f547765657420636f6e74656e742065786365656473203238302063686172616360008201527f7465727300000000000000000000000000000000000000000000000000000000602082015250565b6000610d02602483610ba4565b9150610d0d82610ca6565b604082019050919050565b60006020820190508181036000830152610d3181610cf5565b9050919050565b7f4e487b7100000000000000000000000000000000000000000000000000000000600052602260045260246000fd5b60006002820490506001821680610d7f57607f821691505b602082108103610d9257610d91610d38565b5b50919050565b60008190508160005260206000209050919050565b60006020601f8301049050919050565b600082821b905092915050565b600060088302610dfa7fffffffffffffffffffffffffffffffffffffffffffffffffffffffffffffffff82610dbd565b610e048683610dbd565b95508019841693508086168417925050509392505050565b6000819050919050565b6000610e41610e3c610e37846108a8565b610e1c565b6108a8565b9050919050565b6000819050919050565b610e5b83610e26565b610e6f610e6782610e48565b848454610dca565b825550505050565b600090565b610e84610e77565b610e8f818484610e52565b505050565b5b81811015610eb357610ea8600082610e7c565b600181019050610e95565b5050565b601f821115610ef857610ec981610d98565b610ed284610dad565b81016020851015610ee1578190505b610ef5610eed85610dad565b830182610e94565b50505b505050565b600082821c905092915050565b6000610f1b60001984600802610efd565b1980831691505092915050565b6000610f348383610f0a565b9150826002028217905092915050565b610f4d82610a91565b67ffffffffffffffff811115610f6657610f656106d6565b5b610f708254610d67565b610f7b828285610eb7565b600060209050601f831160018114610fae5760008415610f9c578287015190505b610fa68582610f28565b86555061100e565b601f198416610fbc86610d98565b60005b82811015610fe457848901518255600182019150602085019450602081019050610fbf565b868310156110015784890151610ffd601f891682610f0a565b8355505b6001600288020188555050505b505050505050565b600060608201905061102b600083018661091e565b818103602083015261103d8185610bb5565b905061104c604083018461091e565b949350505050565b7f4e487b7100000000000000000000000000000000000000000000000000000000600052601160045260246000fd5b600061108e826108a8565b91507fffffffffffffffffffffffffffffffffffffffffffffffffffffffffffffffff82036110c0576110bf611054565b5b600182019050919050565b7f547765657420646f6573206e6f74206578697374000000000000000000000000600082015250565b6000611101601483610ba4565b915061110c826110cb565b602082019050919050565b60006020820190508181036000830152611130816110f4565b905091905056fea2646970667358221220d15d8199a81b453b55f8a59bd00cb785bc3209a6a9c2235f325cccccb014498364736f6c634300081c0033",
  "linkReferences": {},
  "deployedLinkReferences": {}
}